:020000040000FA
:060000000A128A11122809
:10000800FE00030E83120313A3000408A4000A08C9
:10001800A5007F08A6000A128A15FD2C0A128A116B
:1000280015288317F030FD000C30FE00E530FF0086
:10003800D83084000A128A155B240A128A1190307B
:100048008400D8300A128A15D0230A128A11831321
:10005800A0308400E9300A128A15D0230A128A11C6
:100068004D3084005F300A128A15D02383010A12AA
:100078008A11412AFF0000308A007F08820743283E
:100088000A128A15172C0A128A15362C0A128A1592
:10009800C32B0A128A15F22E0A128A11C52B0A12CC
:1000A8008A11DB2F0A128A15A22C0A128A159A2E97
:1000B8000A128A15B72C303083120313B0003008A7
:1000C800B400831203132F08B1002E08B000AE0A43
:1000D8000319AF0A3108FF00300884000A128A1594
:1000E80000200A128A11B2003208B6003608031935
:1000F8000800253036060319882836080A128A159A
:10010800FE230A128A1165282F08B1002E08B000B4
:10011800AE0A0319AF0A3108FF00300884000A123A
:100128008A1500200A128A11B600B200B3013308FA
:10013800003A0319A02881283208003A0319A62892
:1001480081286528080083160313981CBD28B4303D
:100158000A128A15E1230A128A11003A0319BD28E6
:10016800B4300A128A11FC260A128A118312031368
:100178009900831203138C1E08009818C528181DAF
:10018800D028181218169E30AE008130AF000A121F
:100198008A1571260A128A11831203131A08B200EB
:1001A8003208B30090300A128A15CE240A128A1136
:1001B800003A03190800831203133308B200320807
:1001C800A70090300A128A156F25080083120313BE
:1001D800B400340A840083130008B2003208A8006F
:1001E80061300A128A1151250A128A1155300A12F1
:0601F8008A152127080012
:1002000073347434613472347434703475346D34CE
:1002100070345334653463346F346E3464344C3426
:100220005734503443346834653463346B34533456
:1002300074346134743465340A340D3400346134F8
:1002400062346334643465346634673468346934E2
:100250006A346B346C346D346E346F347034713492
:100260007234733474347534763477347834793442
:100270007A340A340D340034733474346134723493
:100280007434703475346D34703449346E34693478
:100290007434693461346C34533474346134743478
:1002A00065340A340D340034733474346134723478
:1002B0007434703475346D34703457346134693447
:1002C0007434533474346134743465340A340D3402
:1002D0000034703475346D3470344F347634653492
:1002E00072346C346F34613464344234693474343D
:1002F0000A340D340034643475346D34703453343E
:100300006F346C3465346E346F3469346434423421
:10031000693474340A340D34003473347434613401
:10032000723474346D34613469346E3453347434DB
:100330006134743465340A340D34003473346534F4
:100340007234693461346C3420346F3476346534FB
:10035000723466346C346F347734003473346834F8
:100360007534743464346F3477346E345334743485
:100370006134743465340A340D34003477346134B4
:100380006934743469346E3467347834783478344A
:10039000783420340A340D340034703475346D34BC
:1003A0007034723475346E3453347434613474344C
:1003B00065340A340D3400347334743461346E346B
:1003C000643462347934533474346134743465344D
:1003D0000A340D34003462346F346F34733474343F
:1003E000503475346D3470344234693474340A34A2
:1003F0000D3400346D34613469346E3450347534E6
:100400006D3470344234693474340A340D34003439
:100410006C3477346C345F346634613475346C34E6
:1004200074340A340D3400346C34663470345F3400
:100430006634613475346C3474340A340D340034E9
:100440006C34773470345F346634613475346C34B2
:1004500074340A340D34003470346F345F346634CD
:10046000613475346C3474340A340D3400347734A8
:1004700070344F346B344234693474340A340D347C
:10048000003440308400E63083120313BC000408BB
:10049000BD000A30BE003C08840083170008BF007E
:1004A000BC0A3D08840083133F088000BD0ABE0BD0
:1004B0004B2A0A128A1147270A128A110A128A1134
:1004C000BE250A128A110A128A15B3250A128A1148
:1004D000BE3083120313AE008130AF000A128A11BE
:1004E0005F200A128A1183120313CB01CC010A1276
:1004F0008A15F4230A128A110A128A1130230A1269
:100500008A110A128A1112260A128A1183120313FF
:10051000BC003C08CA004A080319942A4A080A1277
:100520008A1161260A128A110A128A11A7200A1258
:100530008A11013083120313CB070318CC0A003051
:10054000CC0701304C02003003194B02031CBC2ABB
:100550000A128A11FE270A128A110A128A11FF272B
:100560000A128A1140300A128A1517250A128A11B6
:1005700083120313CB01CC010A128A1568240A12D4
:100580008A110A128A15D6250A128A1183120313B8
:10059000071DEF2A08300A128A1526240A128A112A
:1005A000EF2A0A128A1588270A128A11102B0A12BA
:1005B0008A1546240A128A11102B0A128A11D32492
:1005C0000A128A11102B0A128A15C4260A128A11DD
:1005D000102B0A128A1591250A128A11102B8312E8
:1005E00003135408BC00BD013D08003A0319F92A61
:1005F000102B3C08003A0319D12A013A0319D72AD3
:10060000033A0319DD2A013A0319DD2A073A0319CF
:10061000DD2A013A0319E32A033A0319E92A102BC8
:10062000831203135408031D292B83160313451843
:10063000772AC510C701C801FF3083120313AB002E
:100640007F30AC0005300A128A1553270A128A112E
:10065000772A05300A128A1526240A128A11772A67
:100660008B128312031351080319C32B0130D102DB
:10067000BB010730B7003708A7003B080A128A15EC
:100680007A240A128A11A23E84008313001CB72B1D
:10069000073083120313B7003708A7003B080A127C
:1006A0008A157A240A128A11A03E8400FF3083132F
:1006B0008007840F00080318000AFF00FF307F073F
:1006C00080008403073083120313B7003708A700A4
:1006D0003B080A128A157A240A128A11A03E840065
:1006E0008313000883120313B800840A0008B900BA
:1006F00038083904031DB72B0730B7003708A700A7
:100700003B080A128A157A240A128A11A23E840032
:1007100083130010073083120313B7003708A700B4
:100720003B080A128A157A240A128A11A63E84000E
:10073000831300080319B72B073083120313B70084
:100740003708A7003B080A128A157A240A128A1170
:10075000A63E84008313000883120313B8003808F0
:10076000BA003A080A128A113E200A128A11013090
:1007700083120313B7003708BB073B08803A773E64
:100780000318312B392B8B160800831203134F1CCF
:10079000CF18DE2B4F1DCF19DE2B851183160313C7
:1007A000BE10C001C101033083120313AB0000303F
:1007B000AC0004300A128A1553270800831603136D
:1007C000BE1C322C83120313851183160313BE1033
:1007D000400841040319F72B033083120313AB00C5
:1007E0000030AC0004300A128A1553270800831227
:1007F0000313CF19192C4F19102CCF18072C4F08A1
:100800000139AF00B0012F08B50030080A2C0230C2
:10081000B5000030B6003608B4003508B300142C1B
:100820000330B3000030B4003408B2003308B10024
:100830001D2C0430B1000030B200320883160313BF
:10084000C10083120313310883160313C0000F3055
:1008500083120313AB000030AC0004300A128A1577
:100860005327080083120313851583160313BE1440
:10087000400841040319422C0130C0020030031C1F
:10088000C103C102033083120313AB000030AC007C
:1008900004300A128A155327080083120313871C99
:1008A000542C5F0803195B2C07300A128A15262482
:1008B0000A128A11742C831603135318742CD31044
:1008C000013083120313AF002F0883160313D400E3
:1008D000073083120313AB000030AC0007300A125C
:1008E0008A1553270A128A11831203130719912CB0
:1008F000831603135A18912CDA1001308312031354
:10090000AF002F0883160313DB0007308312031395
:10091000AB000030AC0008300A128A1553270A12C7
:100920008A1183120313051A9F2C00300A128A15AC
:1009300026240A128A11831203134F10B22C831635
:1009400003132218B22CA214A401A5012D30831286
:100950000313AB000030AC0000300A128A15532795
:100960000A128A11831203134F1EBB2C01300A1284
:100970008A15262408008316031329180800A914D1
:10098000013083120313AF002F0883160313AA004C
:100990002D3083120313AB000030AC0001300A127B
:1009A0008A155327080083120313051EE12C4F14E8
:1009B000C230AB000130AC0000300A128A15532758
:1009C0000800033054060319E72C09144F17871C3D
:1009D000F22C5F08031DF22CD401D40A0A128A15E6
:1009E000482608004F1A462D02305406031D0E2DCE
:1009F00083160313A910033083120313AF002F08CB
:100A000083160313AA00C23083120313AB00013014
:100A1000AC0001300A128A1553270800033054062F
:100A2000031D2A2D09104F1383160313A910043038
:100A300083120313AF002F0883160313AA00C230DA
:100A400083120313AB000130AC0001300A128A1587
:100A50005327080004305406031D4A2D09144F176C
:100A600083160313A914013083120313AF002F0858
:100A700083160313AA00C23083120313AB000130A4
:100A8000AC0001300A128A155327080001300A12FF
:100A90008A152624053083120313AF002F08D400D3
:100AA000080083120313AC007B30A9002908D5008D
:100AB0002808A9002908D6002C08A9002908D70071
:100AC0005F08A90004300310A90CFF3E031D632D2D
:100AD00029080A128A150A240A128A11831203139A
:100AE000AA002A08D8005F080F390A128A150A24BA
:100AF0000A128A1183120313A9002908D900500889
:100B00000F39A9002908AD002D080A128A150A24F8
:100B10000A128A1183120313A9002908DA00500867
:100B2000AA004F08A90004300310AA0CA90CFF3E2C
:100B3000031D942D29080F39AB002B08AD002D089B
:100B40000A128A150A240A128A1183120313A900B1
:100B50002908DB004F080F39A9002908AD002D082E
:100B60000A128A150A2483120313A9002908DC003B
:100B70007D30A9002908DD00DE010800193083124C
:100B80000313AF002F0883160313A6001630831239
:100B90000313AF002F0883160313AD001330831225
:100BA0000313AF002F0883160313B4001030831211
:100BB0000313AF002F0883160313BB000D308312FD
:100BC0000313AF002F0883160313C20001308312F2
:100BD0000313AB000030AC0004300A128A1553270F
:100BE0000A3083120313AF002F0883160313C900C2
:100BF000073083120313AF002F0883160313D000AE
:100C0000043083120313AF002F0883160313DE0092
:100C1000013083120313AF002F0883160313D7008C
:100C20008B16080090300A128A15E1230A128A11E5
:100C3000003A0319252E272E7B303006031D252E62
:100C4000392E83120313CD01CE01003008009030FD
:100C50000A128A11FC260A128A1183120313AF00AA
:100C60002F08B00030080319252E4D084E04031933
:100C70001C2E3008AF004D08DF3E84002F08831380
:100C800080000130CD070318CE0A0030CE074E0891
:100C9000803AFF0080307F02031D502E0A304D0243
:100CA0000318212E7D30831203133006031D252ED9
:100CB0004D08DF3E840083138001CD01CE01DF307B
:100CC000080083120313B900390A840030308313FB
:100CD00000060319702E390A84000008031D08005D
:100CE0003908023E84000008B5003508B7008C2E94
:100CF00039080A128A15C127080039080A128A150C
:100D00001725080039080A128A11EA200800390854
:100D10000A128A15332508003708B500B6013608CF
:100D2000003A0319942EAE2E3508413A0319822E4B
:100D3000063A03197D2E0A3A0319872E1E3A031923
:100D4000782E323A0319822E063A03197D2E0A3A7A
:100D50000319872E1E3A0319782EAE2E080083162B
:100D600003130C1ECF2E831203130C1ECF2E8316DB
:100D700003130C12B4300A128A15C9230A128A11FD
:100D8000003A0319CF2EB4300A128A1192270A12A0
:100D90008A11831203139900831603130C1683160A
:100DA00003138C1E0800831203138C1E0800981C6A
:100DB000E42E181218169E30A0008130A1000A12ED
:100DC0008A151F260A128A11831203131A08F900C2
:100DD0007908FA0090300A128A158D240A128A11B5
:100DE000003A031908007A08F9007908F0009030F9
:100DF0000A128A154F25080083120313AE002E082D
:100E0000223E840083170008A700840A0008A80077
:100E100027082804031D0E2F003008008B132E080E
:100E2000203E840000082E07A70027088400000841
:100E3000A8002808AD002E08223E84000130800260
:100E4000840F0030031C8003800284032E08203EA0
:100E500084000008A700840A0008A8002708013EB3
:100E6000A90028080318013E003EAA001F302905EA
:100E7000AB0000302A05AC002E08203E84002B0871
:100E80008000840A2C0880008B172D080800831628
:100E9000031381127F309F009F1583120313850176
:100EA00086018316031385018601831203138511BE
:100EB00005104F128510CF1209104F130511501055
:100EC0008910831603138801831203138801831684
:100ED00003130510851005118511091089100714D9
:100EE0008714051685160715013086008312031333
:100EF0004F134F10CF104F11CF114F12CF124F136E
:100F0000CF1350108B17D401D201DF010A128A15BA
:100F1000F4230A128A1183120313D3010A128A15C9
:100F2000B3250800F7007708223E840083170008E5
:100F3000F000840A0008F10070087104031DA22F5C
:100F4000003008008B137708203E840000087707E4
:100F5000F000700884000008F1007108F6007708BE
:100F6000223E840001308002840F0030031C800385
:100F7000800284037708203E84000008F000840A81
:100F80000008F1007008013EF20071080318013EEC
:100F9000003EF3001F307205F40000307305F500C9
:100FA0007708203E840074088000840A7508800059
:100FB0008B17760808008316031339083A040319BF
:100FC000F52F3A0883120313AC0083160313390874
:100FD00083120313AB0003300A128A1553278316BA
:100FE0000313B901BA01B7140800831203134F1594
:100FF000D401D40A0A128A154826080008000800FD
:10100000FF1B0A2883137F1883170008840A03191B
:10101000FF0A08007F087F398A000408840A031940
:04102000FF0A820041
:101786008312031305115010D4010800F0007008ED
:10179600223E840083170008080064008001840A42
:1017A6000406031900340406D12B0A128A114727AE
:1017B6000A128A150A128A11BE250800831203131B
:1017C600A7002708223E8400831700080800F600B9
:1017D6007608F5007508F000B4300A128A154F2510
:1017E60008008312031352080604A7002708DF0027
:1017F6005F088800080083120313AD002D08AC00B3
:101806002C08A700B4300A128A156F250800831227
:101816000313A7000A302702031C142C2708573E7F
:1018260008002708303E0800831603135408831265
:101836000313AD002D08D4005403031D08000A123B
:101846008A154826080083120313AC000730AB0044
:101856002B08A7002C080A128A157A24A23E8400B7
:10186600831300100800831603135B088312031307
:10187600AD002D08D400CF155403031D08000A122D
:101886008A1548260800831203138510CF12091003
:101896004F13051550141E30AB000030AC00063057
:1018A6000A128A15532708007E088A007F088200DC
:1018B60057240A128A158000840A04087D06031933
:1018C6000034FF0A0319FE0A5B2C83120313871CDC
:1018D60008005F08031D08004F1CCF18762C4F190F
:1018E600762CCF1D08000A128A15D8230800831209
:1018F6000313AA00A9012A1C842C2708A80028087B
:10190600A9070310A70D0310AA0C2A08031D7E2C95
:1019160029080800F2007208223E84008317000896
:10192600F000840A0008F10000307102203003192B
:1019360070020318A02C01300800003008000310C4
:1019460083120313071C0314031CAD2C8312031309
:101956000514B02C8312031305100310071C03147F
:101966004F1203184F160800831203134F18C52C85
:101976004F14C230AB000130AC0000300A128A1599
:1019860053270800540803190800D401D40A0A1280
:101996008A154826080083120313A9002908223E47
:1019A600840083170008A700840A0008A8000030F6
:1019B60028022030031927020318E32C01300800FF
:1019C60000300800DC348134AE3481343C34813458
:1019D60054348134003481348D348134CD348134AF
:1019E60030343034303430343034303430343034D1
:1019F600303400348B1A0B1D052D0130A20022084D
:101A0600D1070B110A128A11AF260A128A15831200
:101A160003132608FF0025088A0024088400230EE5
:101A26008300FE0E7E0E090083120313B3000A1212
:101A36008A15F4230A128A1583120313330A8400C3
:101A460083130008B2003208A80067300A128A1110
:101A560051250A128A1555300A128A1521270800BF
:101A660083120313B3000A128A15D8230A128A15A1
:101A760083120313330A840083130008B20032086A
:101A8600A8006D300A128A1151250A128A1555309E
:101A96000A128A1521270800F4008B137008F1003A
:101AA6007408223E840083170008F2007408203E62
:101AB6008400000872071F397407F3007308840056
:101AC600710880007408223E840001308007840A71
:101AD6000318800A8B17080083120313AB008B13BD
:101AE6002708A8002B08223E840083170008A900B7
:101AF6002B08203E8400000829071F392B07AA005F
:101B06002A088400280880002B08223E8400013021
:101B16008007840A0318800A8B1708000A128A11A4
:101B26004D240A128A1583120313851A9F2D03303A
:101B36000A128A152624080083160313371808008C
:101B4600B7140030BA00E130B900E1308312031354
:101B5600AB000030AC0003300A128A155327080088
:101B66009030831203139800831603130713871705
:101B76002430980018128312031398178316031340
:101B860018139030831203139800673083160313DB
:101B96009900831203131816831603130C128C1262
:101BA6008B170B170800831203134F1EDC2D013011
:101BB600DD2D0030AF00071CE22D0130E32D003093
:101BC6002F06031DF42D83160313B0102D30831238
:101BD6000313AB000030AC0002300A128A155327FB
:101BE600080002300A128A152624080083120313FD
:101BF600A70030302702031C072E3A3027020318AD
:101C0600072E2708D03E080061302702031C122E3B
:101C1600673027020318122E2708A93E0800413014
:101C26002702031C1D2E4730270203181D2E2708E6
:101C3600C43E080000300800831203132008F70092
:101C46002108F800780883120313FF007708840040
:101C56000A128A1500200A128A15003A031908008A
:101C66007808FF00770884000A128A1500200A12F5
:101C76008A150A128A15EA230A128A150130F7070D
:101C86000318F80A0030F807252E00300A128A15C4
:101C960026240A128A1501300A128A1526240A12E7
:101CA6008A1502300A128A1526240A128A1503306A
:101CB6000A128A1526240A128A1506300A128A156D
:101CC60026240A128A1508300A128A1526240A12B0
:101CD6008A1507300A128A15262408008312031370
:101CE6002E08B0002F08B1003108FF00300884002C
:101CF6000A128A1500200A128A15003A03190800EA
:101D06003108FF00300884000A128A1500200A12E2
:101D16008A150A128A15FE230A128A1501308312C1
:101D26000313B0070318B10A0030B107772E03106A
:101D360083120313071C0314031CA52E831203131B
:101D46000514A82E8312031305100310071C031491
:101D56004F1203184F1683160313A91CB52E8312B0
:101D66000313CF14831603132A0883120313AD003B
:101D76002D08D4005403031D08000A128A154826AC
:101D860008008312031309144F178514CF160A127D
:101D96008A114D240A128A1583120313851ADE2E20
:101DA60003300A128A152624063083120313B00064
:101DB6003008D40008008316031337180800B7103C
:101DC6000030BA002D30B900C23083120313AB00C5
:101DD6000130AC0003300A128A1553270800831617
:101DE6000313C5180C2F8312031305155014D301C2
:101DF600D30A83160313C514C701C801FF30831223
:101E06000313AB007F30AC0005300A128A15532746
:101E160008008312031305115010D3018316031310
:101E2600C514C701C801FF3083120313AB007F300E
:101E3600AC0005300A128A155327080083120313D3
:101E4600B100310803190800AF01B0013008803A2B
:101E5600FF0080307F02031D322F0A302F02031845
:101E66000800831203132F083107AE002E088400E2
:101E760083130008031908002F083107AE002E0847
:101E8600840000080A128A15FE230A128A150130F8
:101E960083120313AF070318B00A0030B007292FC7
:101EA60083120313AE000730AD002D08A7002E08DD
:101EB6000A128A157A240A128A15A23E840083130E
:101EC60000180800073083120313AD002D08A70081
:101ED6002E080A128A157A240A128A15A03E840050
:101EE600831203132B0883138000840A2C088000B6
:101EF6000730AD002D08A7002E080A128A157A248D
:101F0600A23E840083130014080083120313051AEB
:101F1600962F00300A128A1526240A128A15831271
:101F260003134F10A12F4F14C230AB000130AC0089
:101F360000300A128A1553270A128A1583120313D0
:101F46008510CF1209104F135308031DAC2F05112E
:101F56005010871CB12F5F08031908004F1808009E
:101F6600CF1808004F190800CF1908000230AF003B
:101F76002F08D400D3010511501008008312031353
:101F8600B4003408033E8400831300080A128A153D
:101F9600F9250A128A1583120313B20004300310BE
:101FA600B20DFF3E031DD22F3408043E8400831376
:101FB60000080A128A15F9250A128A1583120313D4
:101FC6003207B3003308D2000A128A15F4230A1224
:101FD6008A1583120313340A840083130008B2009F
:101FE6003208A80073300A128A1151250A128A157E
:0A1FF60055300A128A152127080051
:02400E00FA3F77
:10420000300031000000000000000000000000004D
:00000001FF
