:020000040000FA
:0400000007EF00F016
:100008004C82C5ED0AF018EF09F0D4C0D9FFD5C06D
:10001800DAFFDECFF6FFDDCFF7FF0800F550250A3F
:10002800D8A438D1D4C0D9FFD5C0DAFFDE2A000E53
:10003800DD22000E406E000E3F6E3FC043F040C010
:1000480044F041684268D4C0D9FFD5C0DAFFDECF9A
:10005800F6FFDDCFF7FF0800F550630AD8A427D0D4
:10006800D4C0D9FFD5C0DAFFDE2A000EDD22D6C003
:10007800D9FFD7C0DAFFDFCFD8F0020EDE26DFCFF8
:10008800D9F0000EDD22D8C0D9FFD9C0DAFFDF5081
:100098000001E66FD2C037F0D3C038F0E6C039F0BF
:1000A80059EC0AF037C0D2F038C0D3F01200D4C0EF
:1000B800D9FFD5C0DAFFDECFF6FFDDCFF7FF0800A6
:1000C800F550640AD8B40DD0D4C0D9FFD5C0DAFF32
:1000D800DECFF6FFDDCFF7FF0800F550690AD8A498
:1000E80040D0D4C0D9FFD5C0DAFFDE2A000EDD2209
:1000F800D6C0D9FFD7C0DAFFDFCFD8F0020EDE2690
:10010800DFCFD9F0000EDD22D8C0D9FFD9C0DAFF81
:10011800DECFDAF0DDCFDBF00001000EDBBFFF0E33
:10012800DC6FDD6FDE6FDF6FE06FE16FD2C0B6F0BE
:10013800D3C0B7F0DAC0B8F0DBC0B9F0DCC0BAF0B1
:10014800DDC0BBF0DEC0BCF0DFC0BDF0E0C0BEF07B
:10015800E1C0BFF068EC01F0B6C0D2F0B7C0D3F090
:100168001200D4C0D9FFD5C0DAFFDECFF6FFDDCF4D
:10017800F7FF0800F5506E0AD8A429D0D4C0D9FFDB
:10018800D5C0DAFFDE2A000EDD22D6C0D9FFD7C0DF
:10019800DAFFDFCFD8F0020EDE26DFCFD9F0000E6F
:1001A800DD22D8C0D9FFD9C0DAFFDECFE4F0DDCF39
:1001B800E5F0E4C0D9FFE5C0DAFFA8C0DEFFA9C0BA
:1001C800DDFF000E0001D36F000ED26F1200D4C005
:1001D800D9FFD5C0DAFFDECFF6FFDDCFF7FF080085
:1001E800F550730AD8A42AD0D4C0D9FFD5C0DAFFF5
:1001F800DE2A000EDD22D6C0D9FFD7C0DAFFDFCF56
:10020800D8F0020EDE26DFCFD9F0000EDD22D8C0EE
:10021800D9FFD9C0DAFFDECFE2F0DDCFE3F0D2C0FC
:1002280025F0D3C026F0E2C027F0E3C028F0C5ECE3
:1002380003F025C0D2F026C0D3F01200D4C0D9FFF5
:10024800D5C0DAFFDECFF6FFDDCFF7FF0800F550A7
:10025800250AD8A417D0D4C0D9FFD5C0DAFFDE2A22
:10026800000EDD22000E1D6E250E1C6ED2C01EF083
:10027800D3C01FF0E2EC08F0000E0001D36F010EAE
:10028800D26F1200D4C0D9FFD5C0DAFFDE2A000E23
:10029800DD2297D7D4C0D9FFD5C0DAFFDECFF6FF6D
:1002A800DDCFF7FF0800F5501C6E1D6AD2C01EF0A6
:1002B800D3C01FF0E2EC08F0D4C0D9FFD5C0DAFFF4
:1002C800DE2A000EDD22D8D7B8C0C8F0B9C0C9F000
:1002D800BAC0CAF0BBC0CBF0BCC0CCF0BDC0CDF03A
:1002E800BEC0CEF0BFC0CFF00001CFAF02D0010E2C
:1002F80001D0000EC66FC76BC651C711D8B410D055
:10030800CF1FCE1FCD1FCC1FCB1FCA1FC91FC86D43
:10031800000EC923CA23CB23CC23CD23CE23CF233E
:1003280042AE439242BE05D0425008E14104D8B0E3
:1003380005D0000EC36F010EC26F04D041C0C2F0D9
:1003480042C0C3F03FC0C4F040C0C5F0C651C71199
:10035800D8A402D043A403D0C407D8A0C507000E70
:10036800D16F1F0ED06F000E01011F6F7DD0D00717
:10037800D8A0D107000ED025D96E010ED121DA6E92
:10038800C8C014F0C9C015F0CAC016F0CBC017F029
:10039800CCC018F0CDC019F0CEC01AF0CFC01BF0F9
:1003A8000A0E1C6E000E1D6E000E1E6E000E1F6ED5
:1003B800000E206E000E216E000E226E000E236EBF
:1003C80059EC04F014C037F015C038F016C039F0F5
:1003D80017C03AF018C03BF019C03CF01AC03DF005
:1003E8001BC03EF037C026F039C027F08DEC0BF06B
:1003F8002650300FDF6E0001C207D8A0C307C4071C
:10040800D8A0C507C8C014F0C9C015F0CAC016F0F6
:10041800CBC017F0CCC018F0CDC019F0CEC01AF080
:10042800CFC01BF00A0E1C6E000E1D6E000E1E6E55
:10043800000E1F6E000E206E000E216E000E226E42
:10044800000E236E8CEC02F014C0C8F015C0C9F081
:1004580016C0CAF017C0CBF018C0CCF019C0CDF048
:100468001AC0CEF01BC0CFF00001D1BF1FD0D151B0
:1004780003E1D005D8A01AD0C851C911CA11CB11AF
:10048800CC11CD11CE11CF11D8A471D7C3BF05D0CF
:10049800C35102E1C205D8B06AD7C5BF07D0C5515C
:1004A80003E1C405D8A002D043B261D7C651C71131
:1004B800D8A402D043A417D0D007D8A0D107C651DA
:1004C800C711D8A404D0000EC16F2B0E03D0000EA4
:1004D800C16F2D0EC06F000ED025D96E010ED1212F
:1004E800DA6EC0C0DFFFB6C02CF0B7C02DF0000E2A
:1004F800D0252E6E010ED1212F6EC4C030F0C5C09C
:1005080031F017EC07F02CC0B6F02DC0B7F0120090
:10051800000E256E23AE12D0231E221E211E201E81
:100528001F1E1E1E1D1E1C6C000E1D221E221F22B9
:100538002022212222222322010E256E1BAE12D058
:100548001B1E1A1E191E181E171E161E151E146CA9
:10055800000E152216221722182219221A221B22EF
:10056800010E251A20EE26F0070EDE6AE806FDE2E7
:100578001C501D101E101F102010211022102310B7
:10058800D8B446D0010E246E0AD0D8901C361D3639
:100598001E361F362036213622362336242A23AE2D
:1005A800F4D7D89026362736283629362A362B36D9
:1005B8002C362D361C50145C1D5015581E501658DC
:1005C8001F501758205018582150195822501A589F
:1005D80023501B58D8A011D01C50145E1D50155A1A
:1005E8001E50165A1F50175A2050185A2150195A7F
:1005F80022501A5A23501B5A2680D890233222326E
:10060800213220321F321E321D321C32242EC9D70D
:100618002550D8B410D02D1E2C1E2B1E2A1E291E84
:10062800281E271E266C000E2722282229222A226D
:100638002B222C222D2226C014F027C015F028C00A
:1006480016F029C017F02AC018F02BC019F02CC0DA
:100658001AF02DC01BF0120021EE38F011EE49F00F
:10066800090EDBCFE3FFE806FCE236EC08F0ABEC62
:1006780009F03DEC0CF0780E0001EF6F7F0EF06F83
:1006880016EC0CF0000E0101566F000E556F21ECB0
:100698000DF0BBEC05F054EC05F0F9C053F1FAC0CD
:1006A80054F1010153515411D8B406D053C125F067
:1006B80054C126F016EC06F0BFEC0CF00101554BC6
:1006C800562B040E565DD8A00FD023EC0DF024EC69
:1006D8000DF0490E206E010E216E62EC0CF0000E3A
:1006E8000101566F000E556F74EC0CF03FEC0BF0E7
:1006F80081A813D0080ECCEC0CF00FD0DAEC09F07E
:100708002AD0A3EC0CF027D06FEC06F024D0E7EC4D
:100718000AF021D0BFEC0BF01ED04B500001FC6F4B
:10072800FD6BFD51000AD8A416D0FC51000AD8B4BC
:10073800E5D7010AD8B4E5D7030AD8B4E5D7010A42
:10074800D8B4E2D7070AD8B4DFD7010AD8B4DFD7BC
:10075800030AD8B4DFD74B50D8A40FD000018AB110
:1007680096D78A93000E8D6F000E8C6F7F0E156ED4
:100778001468050EA3EC0AF08AD7050ECCEC0CF031
:1007880086D721EE42F010EE2AF0060EDBCFE3FF0B
:10079800E806FCE227C035F028C036F035503610A0
:1007A800D8A404D02A0E356E000E366E35C014F06B
:1007B80036C015F0EDEC0BF014C039F015C03AF066
:1007C80041C037F042C038F038BE0ED03950375CDF
:1007D8003850800A296E3A50800A2958D8B004D077
:1007E80037C039F038C03AF039C037F03AC038F07D
:1007F8003FC033F040C034F043A00DD016D0000EF7
:100808001D6E200E1C6E25C01EF026C01FF0E2ECE7
:1008180008F0394A3A2A3350395C3A50800A296E2E
:100828003450800A2958D8A0EAD7000E326E000E3C
:10083800316E13D035C0D9FF36C0DAFFDF50296ECC
:1008480029501C6E1D6A25C01EF026C01FF0E2EC60
:1008580008F0354A362A314A322A3750315C32504C
:10086800800A296E3850800A2958D8A0E3D743B0A7
:100878000DD016D0000E1D6E200E1C6E25C01EF069
:1008880026C01FF0E2EC08F0394A3A2A3350395CA6
:100898003A50800A296E3450800A2958D8A0EAD7DD
:1008A80039C025F03AC026F01200000E256E1BAEA6
:1008B80012D01B1E1A1E191E181E171E161E151ED4
:1008C800146C000E152216221722182219221A2239
:1008D8001B22010E256E23AE10D0231E221E211EC0
:1008E800201E1F1E1E1E1D1E1C6C000E1D221E22F9
:1008F8001F2220222122222223221C501D101E10DA
:100908001F102010211022102310D8B43CD0010E43
:10091800246E0AD0D8901C361D361E361F36203657
:10092800213622362336242A23AEF4D71C50145CF1
:100938001D5015581E5016581F501758205018583B
:100948002150195822501A5823501B58D8A010D09B
:100958001C50145E1D50155A1E50165A1F50175A17
:100968002050185A2150195A22501A5A23501B5AEB
:10097800D89023322232213220321F321E321D32C9
:100988001C32242ED3D72550D8B410D01B1E1A1EC3
:10099800191E181E171E161E151E146C000E152281
:1009A80016221722182219221A221B2214C014F008
:1009B80015C015F016C016F017C017F018C018F0BB
:1009C80019C019F01AC01AF01BC01BF0120047A07A
:1009D80047B212D047A447B60FD080960001829341
:1009E800000E856F000E846F000E156E070E146ED4
:1009F800040EA3EC0AF01200000182A340D08096F6
:100A0800829384518511D8B408D0000E156E070E54
:100A1800146E040EA3EC0AF0120047B620D047B4B7
:100A280015D047B20AD047A003D0176A172A01D0B9
:100A3800176A17501C6E1D6A04D0000E1D6E020E38
:100A48001C6E1CC01AF01DC01BF004D0000E1B6EDB
:100A5800030E1A6E1AC018F01BC019F004D0000E4D
:100A6800196E040E186E18C084F019C085F0000EB7
:100A7800156E1E0E146E040EA3EC0AF0120080868A
:100A8800828384518511D8B403D08407D8A0850700
:100A9800000E156E070E146E040EA3EC0AF0120079
:100AA800570E146E010E156EFFEC0CF00009D8A459
:100AB80006D0000E0001F96F000EFA6F1200570EF3
:100AC800146E010E156E62EC07F00001FB6FFB510E
:100AD800D8B4EFD7AA51AB11D8A404D07B0EFB1918
:100AE800D8A4E7D7200EAA25D96E010EAB21DA6E5D
:100AF800FBC0DFFFFB0EEF6F7F0EF06FFBC0F1F066
:100B0800F26B16EC0CF00001AA4BAB2BABBF0BD071
:100B1800AB5104E10A0EAA5DD8A005D0000EAB6F58
:100B2800000EAA6FC6D77D0EFB19D8A4C2D7200E17
:100B3800AA25D96E010EAB21DA6E000EDF6E690EA2
:100B4800EF6F7F0EF06F200EF16F010EF26FAAC0EB
:100B5800F3F0ABC0F4F016EC0CF0000E0001AB6F34
:100B6800000EAA6F200EF96F010EFA6F1200F29AAA
:100B780054D04906000E206E2050080D620EF32452
:100B8800D96E000EF420DA6E0001DFA040D02050AC
:100B9800080D600EF324D96E000EF420DA6EDE061E
:100BA800000EDD5A2050080D600EF324D96E000E99
:100BB800F420DA6EDE50DE10D8A429D02050080DBB
:100BC800620EF324D96E000EF420DA6EDF90205006
:100BD800080D660EF324D96E000EF420DA6EDE508E
:100BE800DE10D8B414D02050080D660EF324D96E48
:100BF800000EF420DA6E01D80AD00500FA6EDE5035
:100C0800FD6EDE50FE6EF850FF6EFA501200202A7C
:100C18002050800A770FD8A0AFD74950D8A4A9D7B9
:100C2800F28A120020EE01F02550D9262650DA2249
:100C3800300EDE18D8B409D020EE01F02550D926A0
:100C48002650DA22DF50D8A4120020EE02F02550F8
:100C5800D9262650DA22DF50296E1CD025C020F074
:100C680026C021F0ACEC08F0120025C020F026C008
:100C780021F062EC0CF0120025C020F026C021F013
:100C880050EC0CF0120025C020F026C021F002EC38
:100C98000CF012002950276E286A2850000AD8A4A0
:100CA80012002750410AD8B4E7D7060AD8B4DDD7CE
:100CB8000A0AD8B4E8D71E0AD8B4D0D7320AD8B4AA
:100CC800DBD7060AD8B4D1D70A0AD8B4DCD71E0AAB
:100CD800D8A41200C3D780A809D04780030E156E88
:100CE800840E146E000EA3EC0AF01200030E4B18CB
:100CF800D8B402D0818A478C81A609D045504610C5
:100D0800D8A405D0010E4B6ED7EC0BF0120047B8F3
:100D180034D0020E4B18D8A40CD000016A93030EED
:100D28006B6F030E156E840E146E010EA3EC0AF0A1
:100D38001200030E4B18D8A40ED0819A479C0001CC
:100D48006A93040E6B6F030E156E840E146E010EFB
:100D5800A3EC0AF01200040E4B18D8A411D0818A13
:100D6800478C00016A83010E6B6F030E156E840EAB
:100D7800146E010EA3EC0AF01200010ECCEC0CF07C
:100D8800050E4B6E120081A604D045504610D8B40B
:100D980004D0070ECCEC0CF00DD000019AB10AD0AB
:100DA8009A93010E9B6F000E156E0F0E146E070EB0
:100DB800A3EC0AF081B80DD00001A2B10AD0A29329
:100DC800010EA36F000E156E0F0E146E080EA3EC25
:100DD8000AF080B805D0000ECCEC0CF047900FD08C
:100DE800000162B10CD06283000E656F000E646F63
:100DF800000E156E5A0E146E000EA3EC0AF047A8EA
:100E080004D0010ECCEC0CF0120000016AB1120003
:100E18006A83010E6B6F000E156E5A0E146E010E6A
:100E2800A3EC0AF0120043A00AD02EC025F02FC070
:100E380026F02CC027F02DC028F023EC0BF031BE93
:100E480005D030C035F031C036F004D0000E366E13
:100E5800000E356E000E346E000E336E0CD0000E90
:100E68001D6E200E1C6E2CC01EF02DC01FF0E2EC73
:100E780008F0334A342A3550335C3450800A326ED5
:100E88003650800A3258D8A0EAD743B00AD02EC0CC
:100E980025F02FC026F02CC027F02DC028F023EC19
:100EA8000BF02EC014F02FC015F0EDEC0BF0355000
:100EB80014242C6E365015202D6E120021EE02F0EF
:100EC8001450D9261550DA22DE50DE10D8A402D0EC
:100ED800000E1200F29E21EE00F01450D926155093
:100EE800DA22DECF16F0DDCF17F016501424D96EB3
:100EF80017501520DA6EDF50186E21EE02F01450EC
:100F0800D9261550DA22DE06000EDD5A21EE00F051
:100F18001450D9261550DA22DECF16F0DDCF17F09F
:100F2800010E1626000E1722FF0E1616000E1716B3
:100F380021EE00F01450D9261550DA2216C0DEFF33
:100F480017C0DDFFF28E1850120021EE02F001509A
:100F5800D9260250DA22DE50DE10D8A402D0000EC4
:100F68001200F29E21EE00F00150D9260250DA223A
:100F7800DECF03F0DDCF04F003500124D96E045016
:100F88000220DA6EDF50056E21EE02F00150D926FC
:100F98000250DA22DE06000EDD5A21EE00F0015082
:100FA800D9260250DA22DECF03F0DDCF04F0010E9D
:100FB8000326000E0422FF0E0316000E041621EE6F
:100FC80000F00150D9260250DA2203C0DEFF04C027
:100FD800DDFFF28E05501200196E7B0E0001AC6F1A
:100FE80015C0ADF019C0AEF045C016F046C017F0F8
:100FF800040E186ED89017321632182EFBD71650DA
:10100800D8EC0CF00001AF6F45500F0BD8EC0CF08A
:101018000001B06F48500F0B1A6E1A50D8EC0CF044
:101028000001B16F47C016F048C017F0040E186EE3
:10103800D89017321632182EFBD716500F0B1A6E8F
:101048001A50D8EC0CF00001B26F47500F0B1A6E13
:101058001A50D8EC0CF00001B36F7D0EB46F000E7F
:10106800B56F1200D59A7F0EC16EC186F19ED38CE2
:10107800D38AD388000E806E000E816E000E926EA9
:10108800000E936E8096809047988092479A819A36
:10109800479C809448908190000E956E000E836E58
:1010A8009290929292949296939A93909384938624
:1010B8009288928A9388479C47904792479447968C
:1010C8004798479A479C479E4890F28E000E4B6E71
:1010D800000E466E000E456E000E4A6E3DEC0CF09A
:1010E80012009DB89EA812D09D985B0E016E020E4C
:1010F800026E0FEC0DF00009D8B408D05B0E016E3B
:10110800020E026EA9EC07F0AD6E9D889DAA120032
:101118009EAA1200ABA208D0AB98AB88490E096E04
:101128007F0E0A6EA6EC0BF0AECF0DF0570E016ED7
:10113800010E026EB1EC0CF00009D8B41200570E83
:10114800016E010E026E0DC003F07BEC09F0120077
:1011580020EE04F02050D9262150DA22DF5005EC89
:101168000BF0226E20EE03F02050D9262150DA220F
:10117800DF5005EC0BF0236E246A233A243AF00E74
:10118800241623500F0B2412F00E2316225023246A
:10119800456E000E2420466E20EE01F02050D92620
:1011A8002150DA22DF50156E730EF0EC07F0AC0E0A
:1011B8001C6E000E1D6E32EC0AF012001E501F103D
:1011C800D8B404D01E501F10D8A404D01C50E2EC90
:1011D8000CF0120020EE04F01E50D9261F50DA221F
:1011E800DE50DE10D8B416D020EE04F01E50D926FA
:1011F8001F50DA2210EE02F01E50E1261F50E222A4
:10120800DE50E65CE650800A246EDE50800A2458E0
:10121800D8B0120020EE02F01E50D9261F50DA2254
:10122800DE2A000EDD221200080EF66E190EF76E89
:10123800000EF86E01EE2AF010EE1FF00900F5CF4F
:10124800EEFFE550E150FAE101EE57F012EE08F03A
:10125800EE6AE550E150FCE1E250FAE101EE00F0FF
:101268002A0EEE6AE806FDE100EE60F0560EEE6A20
:10127800E806FDE100EE3FF00D0EEE6AE806FDE13E
:101288004C904C92000EF86E000130EF03F0F29E85
:1012980021EE02F01450D9261550DA22DECF17F0CD
:1012A800DDCF18F021EE00F01450D9261550DA22BF
:1012B800DECF19F0DDCF1AF01750192618501A2270
:1012C800FF0E1916000E1A1619501424D96E1A504A
:1012D8001520DA6E16C0DFFF21EE02F01450D92671
:1012E8001550DA22DE2A000EDD22F28E1200F29E5E
:1012F80021EE02F00150D9260250DA22DECF04F0A6
:10130800DDCF05F021EE00F00150D9260250DA2297
:10131800DECF06F0DDCF07F0045006260550072281
:10132800FF0E0616000E071606500124D96E075048
:101338000220DA6E03C0DFFF21EE02F00150D92649
:101348000250DA22DE2A000EDD22F28E1200540E3E
:101358000001666F180E676FB60E6E6F160E6F6F10
:10136800280E766F190E776FE80E7E6F160E7F6F58
:10137800D60E866F090E876F000E156E010E146E5D
:10138800040EA3EC0AF0000E00018E6F150E8F6F8D
:101398002E0E966F1A0E976FEC0EA66F190EA76F8A
:1013A8000E0E9E6F1A0E9F6FF28A120080B805D03B
:1013B800000ECCEC0CF0479008D04780030E156E59
:1013C800840E146E000EA3EC0AF08092479A819A5C
:1013D800479C4A50D8A402D08094489081A604D053
:1013E80045504610D8B4120047B0120047B2120058
:1013F80047B4120047B61200020E4B6E000E4A6E3A
:10140800809448901200E9C0EDF0EAC0EEF0000EBA
:101418000001A96F000EA86F13D0E7C0D2F0E8C092
:10142800D3F0ED0ED46F000ED56FEBC0D6F0ECC044
:10143800D7F009EC00F00001D251A827D351A92315
:10144800EDC0F6FFEEC0F7FF0800F5500009D8A47C
:10145800E4D7A8C0E7F0A9C0E8F012001C501D109E
:10146800D8B41200000E1F6E000E1E6E0BD01E5058
:101478001C24D96E1F501D20DA6EDF50E2EC0CF0F0
:101488001E4A1F2A1FBE06D01F500EE10A0E1E5C00
:10149800D8B012001E501C24D96E1F501D20DA6EC1
:1014A800DF50D8B41200E3D712003F504010D8A440
:1014B80005D03FC03AF040C03BF006D0FF0E3F24B5
:1014C8003A6EFF0E40203B6E39C000F1000E01015C
:1014D800016F37C02CF038C02DF0000E2E6E010EB3
:1014E8002F6E3AC030F03BC031F017EC07F02CC03B
:1014F80037F02DC038F0120000018AB310D0808474
:101508004880010E4A6E8A83000E8D6F000E8C6F24
:101518007F0E156E1468050EA3EC0AF01200809475
:101528004890000E4A6E8A83000E8D6F000E8C6FF5
:101538007F0E156E1468050EA3EC0AF01200166EE5
:101548001650080D620EF324D96E000EF420DA6EE0
:101558000001DFB012001650080D600EF324D96E9A
:10156800000EF420DA6E14C0DEFF15C0DDFF165041
:10157800080D620EF324D96E000EF420DA6EDF80B7
:1015880012000600D9CF0EF0DACF0FF0F6CF10F028
:10159800F7CF11F0F8CF12F0F5CF13F0F2BAF2A4AA
:1015A80002D0492AF29475EC08F013C0F5FF12C076
:1015B800F8FF11C0F7FF10C0F6FF0FC0DAFF0EC02A
:1015C800D9FF4C921100818A478C8082478AC7ECE8
:1015D80006F080BA06D0030ECCEC0CF0060E4B6E6B
:1015E800120000017AB112007A93000E7D6F5A0E34
:1015F8007C6F030E156E840E146E030EA3EC0AF0B6
:101608001200146E2F0E146406D03A0E146003D024
:101618001450D00F1200600E146406D0670E1460C8
:1016280003D01450A90F1200400E146406D0470EC0
:10163800146003D01450C40F1200000E1200000EE4
:101648002B6E000E2A6E0BD029C01CF01D6A27C015
:101658001EF028C01FF0E2EC08F02A4A2B2A2A5074
:101668002524D96E2B502620DA6EDF50296E29509A
:10167800D8B41200E9D747A802D0010E01D0000E55
:10168800176E81A402D0010E01D0000E171AD8A43B
:101698000AD000017293000E156E5A0E146E020ED7
:1016A800A3EC0AF01200020ECCEC0CF0120081B48C
:1016B80003D0156A152A01D0156A80501518FE0B3B
:1016C8001518806E478881B4479800016AB347822D
:1016D8006BC04BF04B04D8A41200D7EC0BF01200EF
:1016E80000017C517D11D8B40ED07CC014F07DC0AF
:1016F80015F0030EA3EC0AF0000E00017D6F000E3A
:101708007C6F7A8312004784010E4B6ED7EC0BF086
:10171800120027BE05D0275010E12604D8B00DD0FE
:1017280026C028F027C029F0281E291E284A292A61
:1017380028C026F029C027F0120026C026F027C0AE
:1017480027F0120009C00BF00AC00CF00AD00BC039
:10175800F6FF0CC0F7FF0800F550ECEC0CF00B4A54
:101768000C2A0BC0F6FF0CC0F7FF0800F550000963
:10177800D8B41200ECD7C7EC06F080BA04D0030E38
:10178800CCEC0CF0120000017AB112007A83010E41
:101798007D6FC20E7C6F010E156EC20E146E030EA5
:1017A800A3EC0AF01200000ECCEC0CF0010ECCEC0D
:1017B8000CF0020ECCEC0CF0030ECCEC0CF0060E88
:1017C800CCEC0CF0080ECCEC0CF0070ECCEC0CF0CA
:1017D800120014C016F015C017F002D0144A152ACA
:1017E80014C0D9FF15C0DAFFDF50D8A4F7D71650B8
:1017F800145C146E17501558156E12001CEC0DF081
:1018080020EE01F02050D9262150DA22DF50156E43
:101818006D0EF0EC07F0AC0E1C6E000E1D6E32EC77
:101828000AF01200F10E0001F76F000EF86F000EBB
:10183800E76F000EE86FEFC0E9F0F0C0EAF0F70ECE
:10184800EB6F000EEC6F07EC0AF0120047B009D0FE
:101858004780030E156E840E146E000EA3EC0AF07A
:1018680012004B50D8B41200010E4B6ED7EC0BF09F
:101878001200900EAB6E949C948E240EAC6EAC98B5
:10188800AB8EAC9C900EAB6ECF0EAF6EAB889D88C6
:101898009D8AF28EF28C120020EE01F02050D9269B
:1018A8002150DA22DF50156E610EF0EC07F0AC0E15
:1018B8001C6E000E1D6E32EC0AF0120020EE01F0D4
:1018C8002050D9262150DA22DF50156E670EF0EC31
:1018D80007F0AC0E1C6E000E1D6E32EC0AF0120002
:1018E80081A6120045504610D8A4120047A047B25E
:1018F80004D047B402D047A612001CEC0DF0120029
:10190800967F597FE77EFF7EAB7E387F877F3030BA
:0F1918003030303030303000286E756C6C290064
:1019280081B403D0146A142A01D0146A80501418A0
:10193800FE0B1418806E478881B447981200809275
:10194800479A819A479C80844880000E156E3C0E09
:10195800146E060EA3EC0AF0120021EE02F00150FC
:10196800D9260250DA22DE52DE04D8B002D0010EA7
:101978001200000E1200ACA212005B0E146E020ED2
:10198800156EFFEC0CF00009D8B412009D88120007
:10199800146E1450080D620EF324D96E000EF42054
:1019A800DA6E0001DF901200146E090E146403D081
:1019B8001450570F12001450300F12001B6E5B0E9C
:1019C800146E020E156E1BC016F04BEC09F01200D7
:1019D800086E5B0E016E020E026E08C003F07BEC0F
:1019E80009F01200A3C04BF047864B04D8A412009C
:1019F800D7EC0BF0120021EE02F01450D926155046
:101A0800DA22DF5012009BC04BF04B04D8A412001E
:101A1800D7EC0BF0120021EE02F00150D92602504B
:101A2800DA22DF50120080944890000E4B6E1200AC
:101A380036EC08F0ABEC09F01200832A1200120011
:021A480012008A
:107EAA0000737461727470756D705365636F6E647C
:107EBA004C5750436865636B53746174650A0D00CF
:107ECA006162636465666768696A6B6C6D6E6F7020
:107EDA007172737475767778797A0A0D00737461A2
:107EEA00727470756D70496E697469616C537461EE
:107EFA0074650A0D00737461727470756D705761E0
:107F0A00697453746174650A0D0070756D704F76EB
:107F1A0065726C6F61644269740A0D0064756D70F4
:107F2A00536F6C656E6F69644269740A0D007374ED
:107F3A006172746D61696E53746174650A0D0073C0
:107F4A00657269616C206F766572666C6F77007313
:107F5A00687574646F776E53746174650A0D004DA9
:107F6A0065737361676525732025640D0A0077615F
:107F7A006974696E6778787878200A0D0070756D73
:107F8A007072756E53746174650A0D007374616E54
:107F9A0064627953746174650A0D00626F6F737459
:107FAA0050756D704269740A0D006D61696E507585
:107FBA006D704269740A0D006C776C5F6661756C4E
:107FCA00740A0D006C66705F6661756C740A0D0048
:107FDA006C77705F6661756C740A0D00706F5F660E
:107FEA0061756C740A0D0077704F6B4269740A0DE3
:057FFA000025630000FA
:020000040020DA
:08000000FFFFFFFFFFFFFFFF00
:020000040030CA
:0E00000000080F1EFF8185FF0FC00FE00F40AC
:0200000400F00A
:08000000303100000000000097
:00000001FF
