:020000040000FA
:0400000007EF00F016
:100008004C8261ED06F048EF05F027C0D9FF28C003
:10001800DAFFDECFF6FFDDCFF7FF0800F550250A3F
:10002800D8A471D027C0D9FF28C0DAFFDE2A000E75
:10003800DD22000E346E000E336E33C037F034C04C
:1000480038F03568366827C0D9FF28C0DAFFDECF18
:10005800F6FFDDCFF7FF0800F5506E0AD8A428D0C8
:1000680027C0D9FF28C0DAFFDE2A000EDD2229C00A
:10007800D9FF2AC0DAFFDFCF2BF0020EDE26DFCF52
:100088002CF0000EDD222BC0D9FF2CC0DAFFDECF0A
:100098002DF0DDCF2EF02DC0D9FF2EC0DAFF31C0F4
:1000A800DEFF32C0DDFF000E266E000E256E120048
:1000B80027C0D9FF28C0DAFFDECFF6FFDDCFF7FF74
:1000C8000800F550250AD8A416D027C0D9FF28C0A3
:1000D800DAFFDE2A000EDD22000E1D6E250E1C6ED4
:1000E80025C01EF026C01FF083EC04F0000E266E1B
:1000F800010E256E120027C0D9FF28C0DAFFDE2ABC
:10010800000EDD22D0D727C0D9FF28C0DAFFDECF06
:10011800F6FFDDCFF7FF0800F5501C6E1D6A25C0FD
:100128001EF026C01FF083EC04F027C0D9FF28C0BA
:10013800DAFFDE2A000EDD22D9D720EEE0F011EE3C
:1001480000F0090EDBCFE3FFE806FCE2D3EC03F096
:1001580019EC05F0A3EC07F07B0E0001F06F7F0EA1
:10016800F16F7CEC07F0000E01010D6F000E0C6FB3
:1001780066EC08F09FEC01F0F9EC02F019C00AF106
:100188001AC00BF101010A510B11D8B406D00AC1EB
:1001980023F00BC124F0FAEC01F002EC08F00101A5
:1001A8000C4B0D2B040E0D5DD8A00FD076EC08F08B
:1001B80077EC08F0000E206E010E216E68EC07F057
:1001C800000E01010D6F000E0C6FD7EC07F0BFECAD
:1001D80006F082A413D0080E1BEC08F00FD075ECC3
:1001E80005F02AD0E6EC07F027D053EC02F024D033
:1001F80083EC06F021D026EC07F01ED04050000119
:10020800F66FF76BF751000AD8A416D0F651000A1A
:10021800D8B4E5D7010AD8B4E5D7030AD8B4E5D7E6
:10022800010AD8B4E2D7070AD8B4DFD7010AD8B48C
:10023800DFD7030AD8B4DFD74050D8A40FD00001C5
:100248008AB196D78A93000E8D6F000E8C6F7F0E41
:10025800156E1468050E3FEC06F08AD7050E1BECE8
:1002680008F086D73BA03BB212D03BA43BB60FD0D8
:10027800809600018293000E856F000E846F000E39
:10028800156E070E146E040E3FEC06F01200000106
:1002980082A340D08096829384518511D8B408D027
:1002A800000E156E070E146E040E3FEC06F01200D9
:1002B8003BB620D03BB415D03BB20AD03BA003D00C
:1002C800176A172A01D0176A17501C6E1D6A04D0C6
:1002D800000E1D6E020E1C6E1CC01AF01DC01BF015
:1002E80004D0000E1B6E030E1A6E1AC018F01BC045
:1002F80019F004D0000E196E040E186E18C084F0A0
:1003080019C085F0000E156E1E0E146E040E3FEC1B
:1003180006F012008086828384518511D8B403D0F8
:100328008407D8A08507000E156E070E146E040EFC
:100338003FEC06F01200F29A54D03D06000E206EF3
:100348002050080D620EF324D96E000EF420DA6EE8
:100358000001DFA040D02050080D600EF324D96EB4
:10036800000EF420DA6EDE06000EDD5A2050080D6D
:10037800600EF324D96E000EF420DA6EDE50DE1023
:10038800D8A429D02050080D620EF324D96E000E8F
:10039800F420DA6EDF902050080D660EF324D96E33
:1003A800000EF420DA6EDE50DE10D8B414D02050DF
:1003B800080D660EF324D96E000EF420DA6E01D80B
:1003C8000AD00500FA6EDE50FD6EDE50FE6EF85063
:1003D800FF6EFA501200202A2050800A770FD8A00A
:1003E800AFD73D50D8A4A9D7F28A120020EE01F069
:1003F8002350D9262450DA22300EDE18D8B409D07A
:1004080020EE01F02350D9262450DA22DF50D8A458
:10041800120020EE02F02350D9262450DA22DF50B1
:10042800276E1CD023C020F024C021F0A1EC05F0D9
:10043800120023C020F024C021F068EC07F012005D
:1004480023C020F024C021F0B6EC07F0120023C02E
:1004580020F024C021F054EC07F012002750256E3C
:10046800266A2650000AD8A412002550410AD8B49A
:10047800E7D7060AD8B4DDD70A0AD8B4E8D71E0ADF
:10048800D8B4D0D7320AD8B4DBD7060AD8B4D1D773
:100498000A0AD8B4DCD71E0AD8A41200C3D780A889
:1004A80009D03B80030E156E840E146E000E3FECCF
:1004B80006F01200030E4018D8B402D084803B8C9A
:1004C80082A208D04B50D8A405D0010E406E3EEC55
:1004D80007F012003BB834D0020E4018D8A40CD054
:1004E80000016A93030E6B6F030E156E840E146E73
:1004F800010E3FEC06F01200030E4018D8A40ED0EF
:1005080084903B9C00016A93040E6B6F030E156E7A
:10051800840E146E010E3FEC06F01200040E401813
:10052800D8A411D084803B8C00016A83010E6B6FC4
:10053800030E156E840E146E010E3FEC06F01200C9
:10054800010E1BEC08F0050E406E120082A203D0CB
:100558004B50D8B404D0070E1BEC08F00DD00001A6
:100568009AB10AD09A93010E9B6F000E156E0F0E6A
:10057800146E070E3FEC06F082B40DD00001A2B154
:100588000AD0A293010EA36F000E156E0F0E146E03
:10059800080E3FEC06F080B805D0000E1BEC08F002
:1005A8003B900FD0000162B10CD06283000E656FE2
:1005B800000E646F000E156E5A0E146E000E3FEC9E
:1005C80006F03BA804D0010E1BEC08F01200000155
:1005D8006AB112006A83010E6B6F000E156E5A0E17
:1005E800146E010E3FEC06F012000E0E146E010E92
:1005F800156E4EEC08F00009D8A405D0000E196E4F
:10060800000E1A6E12000E0E146E010E156E45ECD9
:1006180003F01B6E1B50D8B4F1D739503A10D8A448
:1006280004D07B0E1B18D8A4E9D7C80E3924D96E7C
:10063800000E3A20DA6E1BC0DFFF394A3A2A3ABE6A
:100648000BD03A5004E10A0E395CD8A005D0000E50
:100658003A6E000E396ED2D77D0E1B18D8A4CED7AD
:10066800C80E3924D96E000E3A20DA6E000EDF6EFD
:10067800000E3A6E000E396EC80E196E000E1A6E14
:10068800120021EE02F01450D9261550DA22DE505D
:10069800DE10D8A402D0000E1200F29E21EE00F067
:1006A8001450D9261550DA22DECF16F0DDCF17F018
:1006B80016501424D96E17501520DA6EDF50186EB4
:1006C80021EE02F01450D9261550DA22DE06000E6B
:1006D800DD5A21EE00F01450D9261550DA22DECF6B
:1006E80016F0DDCF17F0010E1626000E1722FF0EAA
:1006F8001616000E171621EE00F01450D9261550C4
:10070800DA2216C0DEFF17C0DDFFF28E1850120085
:1007180021EE02F00150D9260250DA22DE50DE1016
:10072800D8A402D0000E1200F29E21EE00F0015073
:10073800D9260250DA22DECF03F0DDCF04F00350D1
:100748000124D96E04500220DA6EDF50056E21EEC6
:1007580002F00150D9260250DA22DE06000EDD5AD8
:1007680021EE00F00150D9260250DA22DECF03F044
:10077800DDCF04F0010E0326000E0422FF0E03163F
:10078800000E041621EE00F00150D9260250DA229C
:1007980003C0DEFF04C0DDFFF28E05501200D59ABB
:1007A8007F0EC16EC186F19ED38CD38AD388000E8A
:1007B800806E000E816E000E926E000E936E809613
:1007C80080903B9880923B9A84903B9C80943C908C
:1007D8008492000E956E000E836E9290929292947F
:1007E800929696909692948094829288928A948413
:1007F800010E936E3B9C3B903B923B943B963B98FF
:100808003B9A3B9C3B9E3C90F28E000E406E000E45
:100818003E6E000E4B6E66EC08F0000E3F6EA3ECC9
:1008280007F012009DB89EA812D09D98120E016E76
:10083800020E026E5EEC08F00009D8B408D0120E61
:10084800016E020E026E8CEC03F0AD6E9D889DAABF
:1008580012009EAA1200ABA208D0AB98AB885B0E20
:10086800096E7F0E0A6E0DEC07F0AECF0DF00E0E7E
:10087800016E010E026EF4EC07F00009D8B4120004
:100888000E0E016E010E026E0DC003F0E9EC04F0CD
:100898001200196E7B0E416E15C042F019C043F06C
:1008A8004B380F0B27EC08F0446E4B500F0B27EC1E
:1008B80008F0456E3C500F0B1A6E1A5027EC08F0E2
:1008C800466E3BC016F03CC017F0040E186ED89068
:1008D80017321632182EFBD716500F0B1A6E1A50F5
:1008E80027EC08F0476E3B500F0B1A6E1A5027EC96
:1008F80008F0486E7D0E496E000E4A6E12001E50BA
:100908001F10D8B404D01E501F10D8A404D01C50F7
:1009180031EC08F0120020EE04F01E50D9261F50CA
:10092800DA22DE50DE10D8B416D020EE04F01E50C5
:10093800D9261F50DA2210EE02F01E50E1261F5071
:10094800E222DE50E65CE650800A246EDE50800A21
:100958002458D8B0120020EE02F01E50D9261F509D
:10096800DA22DE2A000EDD221200F29E21EE02F0CB
:100978001450D9261550DA22DECF17F0DDCF18F043
:1009880021EE00F01450D9261550DA22DECF19F0E6
:10099800DDCF1AF01750192618501A22FF0E191613
:1009A800000E1A1619501424D96E1A501520DA6E32
:1009B80016C0DFFF21EE02F01450D9261550DA22B6
:1009C800DE2A000EDD22F28E1200F29E21EE02F0E7
:1009D8000150D9260250DA22DECF04F0DDCF05F02F
:1009E80021EE00F00150D9260250DA22DECF06F0BF
:1009F800DDCF07F00450062605500722FF0E061625
:100A0800000E071606500124D96E07500220DA6E30
:100A180003C0DFFF21EE02F00150D9260250DA228E
:100A2800DE2A000EDD22F28E1200200E0001666F13
:100A38000F0E676FB60E6E6F0D0E6F6F900E766F9E
:100A48000F0E776FE80E7E6F0D0E7F6F6C0E866F40
:100A5800020E876F000E156E010E146E040E3FEC29
:100A680006F0380E00018E6F0C0E8F6FD80E966F41
:100A7800100E976F8A0EA66F100EA76FAC0E9E6FA2
:100A8800100E9F6FF28A12001E0EF66E100EF76E91
:100A9800000EF86E00EED2F010EE18F00900F5CF57
:100AA800EEFFE550E150FAE101EE0EF012EE08F02B
:100AB800EE6AE550E150FCE1E250FAE100EE60F048
:100AC800720EEE6AE806FDE100EE31F01A0EEE6AEB
:100AD800E806FDE14C904C92000EF86E0001A1EF83
:100AE80000F080B805D0000E1BEC08F03B9008D051
:100AF8003B80030E156E840E146E000E3FEC06F05C
:100B080080923B9A84903B9C3F50D8A402D080941A
:100B18003C9082A203D04B50D8B412003BB01200D4
:100B28003BB212003BB412003BB61200020E406EFC
:100B3800000E3F6E80943C90120020EE04F020508E
:100B4800D9262150DA22DF50A1EC06F0226E20EEE1
:100B580003F02050D9262150DA22DF50A1EC06F00C
:100B6800100DF35022243E6E66EC08F020EE01F0E2
:100B78002050D9262150DA22DF50156E730E4DEC25
:100B880004F0410E1C6E000E1D6EF5EC05F012000F
:100B9800ECC02FF0EDC030F0000E326E000E316E5A
:100BA80012D0EAC025F0EBC026F02F0E276E000EFB
:100BB800286EEEC029F0EFC02AF009EC00F02550AD
:100BC8003126265032222FC0F6FF30C0F7FF08002A
:100BD800F5500009D8A4E5D731C0EAF032C0EBF0EF
:100BE80012001C501D10D8B41200000E1F6E000E0B
:100BF8001E6E0BD01E501C24D96E1F501D20DA6E9D
:100C0800DF5031EC08F01E4A1F2A1FBE06D01F50C5
:100C18000EE10A0E1E5CD8B012001E501C24D96EBC
:100C28001F501D20DA6EDF50D8B41200E3D712002F
:100C380000018AB310D080843C80010E3F6E8A8305
:100C4800000E8D6F000E8C6F7F0E156E1468050EEA
:100C58003FEC06F0120080943C90000E3F6E8A83B1
:100C6800000E8D6F000E8C6F7F0E156E1468050ECA
:100C78003FEC06F01200166E1650080D620EF324B3
:100C8800D96E000EF420DA6E0001DFB012001650A3
:100C9800080D600EF324D96E000EF420DA6E14C02D
:100CA800DEFF15C0DDFF1650080D620EF324D96E65
:100CB800000EF420DA6EDF8012000600D9CF0EF0A5
:100CC800DACF0FF0F6CF10F0F7CF11F0F8CF12F01F
:100CD800F5CF13F0F2BAF2A402D03D2AF29416EC42
:100CE80004F013C0F5FF12C0F8FF11C0F7FF10C0E1
:100CF800F6FF0FC0DAFF0EC0D9FF4C9211008480B6
:100D08003B8C80823B8AAAEC02F080BA06D0030EA4
:100D18001BEC08F0060E406E120000017AB11200BA
:100D28007A93000E7D6F5A0E7C6F030E156E840E3B
:100D3800146E030E3FEC06F01200146E2F0E1464AE
:100D480006D03A0E146003D01450D00F1200600E73
:100D5800146406D0670E146003D01450A90F120053
:100D6800400E146406D0470E146003D01450C40F0C
:100D78001200000E12003BA802D0010E01D0000E96
:100D8800176E82A002D0010E01D0000E171AD8A447
:100D98000AD000017293000E156E5A0E146E020EE0
:100DA8003FEC06F01200020E1BEC08F0120082B0B5
:100DB80003D0156A152A01D0156A80501518FE0B44
:100DC8001518806E3B8882B03B9800016AB33B825D
:100DD8006BC040F04004D8A412003EEC07F01200AB
:100DE80000017C517D11D8B40ED07CC014F07DC0B8
:100DF80015F0030E3FEC06F0000E00017D6F000EAB
:100E08007C6F7A8312003B84010E406E3EEC07F043
:100E1800120009C00BF00AC00CF00AD00BC0F6FF94
:100E28000CC0F7FF0800F5503BEC08F00B4A0C2A01
:100E38000BC0F6FF0CC0F7FF0800F5500009D8B446
:100E48001200ECD7AAEC02F080BA04D0030E1BEC17
:100E580008F0120000017AB112007A83010E7D6F4A
:100E6800C20E7C6F010E156EC20E146E030E3FEC9F
:100E780006F01200000E1BEC08F0010E1BEC08F047
:100E8800020E1BEC08F0030E1BEC08F0060E1BEC20
:100E980008F0080E1BEC08F0070E1BEC08F0120017
:100EA80071EC08F020EE01F02050D9262150DA220A
:100EB800DF50156E6D0E4DEC04F0410E1C6E000EE9
:100EC8001D6EF5EC05F0120066EC08F020EE01F05E
:100ED8002050D9262150DA22DF50156E670E4DECCE
:100EE80004F0410E1C6E000E1D6EF5EC05F01200AC
:100EF800F20E0001F46F000EF56F000EEA6F000E9F
:100F0800EB6FF0C0ECF0F1C0EDF0F40EEE6F000EF8
:100F1800EF6FCCEC05F012003BB009D03B80030E1C
:100F2800156E840E146E000E3FEC06F01200405051
:100F3800D8B41200010E406E3EEC07F01200900E7D
:100F4800AB6E949C948E240EAC6EAC98AB8EAC9C1D
:100F5800900EAB6ECF0EAF6EAB889D889D8AF28ED9
:100F6800F28C120020EE01F02050D9262150DA220E
:100F7800DF50156E610E4DEC04F0410E1C6E000E34
:100F88001D6EF5EC05F0120082B003D0146A142A25
:100F980001D0146A80501418FE0B1418806E3B8818
:100FA80082B03B98120082A212004B50D8A41200C3
:100FB8003BA03BB204D03BB402D03BA6120071EC7C
:100FC80008F0120080923B9A84903B9C80843C807D
:100FD800000E156E3C0E146E060E3FEC06F0120065
:100FE80021EE02F00150D9260250DA22DE52DE0448
:100FF800D8B002D0010E1200000E1200ACA21200EE
:10100800120E146E020E156E4EEC08F00009D8B4DC
:1010180012009D881200997F6B7FF97E117FBD7E3B
:101028004A7F8A7F30303030303030303000146EB4
:101038001450080D620EF324D96E000EF420DA6EF7
:101048000001DF901200146E090E146403D01450CE
:10105800570F12001450300F12001B6E120E146E30
:10106800020E156E1BC016F0B9EC04F01200086EE3
:10107800120E016E020E026E08C003F0E9EC04F0D5
:101088001200A3C040F03B864004D8A412003EECF6
:1010980007F0120021EE02F01450D9261550DA227A
:1010A800DF5012009BC040F04004D8A412003EEC70
:1010B80007F0120021EE02F00150D9260250DA2280
:1010C800DF5012003E5081104B6E4BC083FF120060
:1010D80080943C90000E406E1200D3EC03F019ECA3
:0810E80005F0120012001200D5
:107EBC0000737461727470756D705365636F6E646A
:107ECC004C5750436865636B53746174650A0D00BD
:107EDC006162636465666768696A6B6C6D6E6F700E
:107EEC007172737475767778797A0A0D0073746190
:107EFC00727470756D70496E697469616C537461DC
:107F0C0074650A0D00737461727470756D705761CD
:107F1C00697453746174650A0D0070756D704F76D9
:107F2C0065726C6F61644269740A0D0064756D70E2
:107F3C00536F6C656E6F69644269740A0D007374DB
:107F4C006172746D61696E53746174650A0D0073AE
:107F5C00657269616C206F766572666C6F77007301
:107F6C00687574646F776E53746174650A0D00776D
:107F7C00616974696E6778787878200A0D0070757D
:107F8C006D7072756E53746174650A0D0073746153
:107F9C006E64627953746174650A0D00626F6F735D
:107FAC007450756D704269740A0D006D61696E5084
:107FBC00756D704269740A0D006C776C5F66617543
:107FCC006C740A0D006C66705F6661756C740A0DDA
:107FDC00006C77705F6661756C740A0D00706F5F72
:107FEC006661756C740A0D0077704F6B4269740A88
:037FFC000D000075
:020000040020DA
:08000000FFFFFFFFFFFFFFFF00
:020000040030CA
:0E00000000080F1EFF8185FF0FC00FE00F40AC
:0200000400F00A
:08000000303100000000000097
:00000001FF
